{
  "abi": [
    {
      "inputs": [
        {
          "internalType": "contract IBonsaiRelay",
          "name": "bonsaiRelay",
          "type": "address"
        },
        {
          "internalType": "bytes32",
          "name": "_fibImageId",
          "type": "bytes32"
        }
      ],
      "stateMutability": "nonpayable",
      "type": "constructor"
    },
    {
      "inputs": [
        {
          "internalType": "contract IBonsaiRelay",
          "name": "expected",
          "type": "address"
        },
        {
          "internalType": "contract IBonsaiRelay",
          "name": "found",
          "type": "address"
        }
      ],
      "name": "UnauthorizedCallbackSource",
      "type": "error"
    },
    {
      "inputs": [
        {
          "internalType": "bytes32",
          "name": "expected",
          "type": "bytes32"
        },
        {
          "internalType": "bytes32",
          "name": "found",
          "type": "bytes32"
        }
      ],
      "name": "UnexpectedImageId",
      "type": "error"
    },
    {
      "anonymous": false,
      "inputs": [
        {
          "indexed": false,
          "internalType": "string",
          "name": "prevBoard",
          "type": "string"
        },
        {
          "indexed": false,
          "internalType": "string",
          "name": "nextBoard",
          "type": "string"
        }
      ],
      "name": "BoardUpdated",
      "type": "event"
    },
    {
      "anonymous": false,
      "inputs": [
        {
          "indexed": false,
          "internalType": "enum BonsaiChess.GameState",
          "name": "gameState",
          "type": "uint8"
        }
      ],
      "name": "GameOver",
      "type": "event"
    },
    {
      "inputs": [],
      "name": "bonsaiRelay",
      "outputs": [
        {
          "internalType": "contract IBonsaiRelay",
          "name": "",
          "type": "address"
        }
      ],
      "stateMutability": "view",
      "type": "function"
    },
    {
      "inputs": [],
      "name": "fen",
      "outputs": [
        {
          "internalType": "string",
          "name": "",
          "type": "string"
        }
      ],
      "stateMutability": "view",
      "type": "function"
    },
    {
      "inputs": [],
      "name": "fibImageId",
      "outputs": [
        {
          "internalType": "bytes32",
          "name": "",
          "type": "bytes32"
        }
      ],
      "stateMutability": "view",
      "type": "function"
    },
    {
      "inputs": [],
      "name": "gameState",
      "outputs": [
        {
          "internalType": "enum BonsaiChess.GameState",
          "name": "",
          "type": "uint8"
        }
      ],
      "stateMutability": "view",
      "type": "function"
    },
    {
      "inputs": [
        {
          "internalType": "string",
          "name": "move",
          "type": "string"
        }
      ],
      "name": "makeMove",
      "outputs": [],
      "stateMutability": "nonpayable",
      "type": "function"
    },
    {
      "inputs": [
        {
          "internalType": "string",
          "name": "prevBoard",
          "type": "string"
        },
        {
          "internalType": "string",
          "name": "nextBoard",
          "type": "string"
        },
        {
          "internalType": "enum BonsaiChess.GameState",
          "name": "state",
          "type": "uint8"
        }
      ],
      "name": "updateBoard",
      "outputs": [],
      "stateMutability": "nonpayable",
      "type": "function"
    }
  ],
  "bytecode": {
    "object": "0x60c06040523480156200001157600080fd5b5060405162000d8338038062000d83833981016040819052620000349162000081565b6001600160a01b03821660805260a08190526040805160608101909152603880825262000d4b60208301396000906200006e908262000162565b50506001805460ff19169055506200022e565b600080604083850312156200009557600080fd5b82516001600160a01b0381168114620000ad57600080fd5b6020939093015192949293505050565b634e487b7160e01b600052604160045260246000fd5b600181811c90821680620000e857607f821691505b6020821081036200010957634e487b7160e01b600052602260045260246000fd5b50919050565b601f8211156200015d57600081815260208120601f850160051c81016020861015620001385750805b601f850160051c820191505b81811015620001595782815560010162000144565b5050505b505050565b81516001600160401b038111156200017e576200017e620000bd565b62000196816200018f8454620000d3565b846200010f565b602080601f831160018114620001ce5760008415620001b55750858301515b600019600386901b1c1916600185901b17855562000159565b600085815260208120601f198616915b82811015620001ff57888601518255948401946001909101908401620001de565b50858210156200021e5787850151600019600388901b60f8161c191681555b5050505050600190811b01905550565b60805160a051610ad66200027560003960008181606c01528181610139015261031d01526000818160fd015281816102ee0152818161045d015261049a0152610ad66000f3fe608060405234801561001057600080fd5b50600436106100625760003560e01c806313234edc146100675780632e993c83146100a15780639198eb7e146100b6578063945c3ce1146100c9578063d1f9c24d146100de578063e70ffd4b146100f8575b600080fd5b61008e7f000000000000000000000000000000000000000000000000000000000000000081565b6040519081526020015b60405180910390f35b6100b46100af3660046105c8565b610137565b005b6100b46100c4366004610644565b610292565b6100d16103c4565b60405161009891906106d1565b6001546100eb9060ff1681565b6040516100989190610701565b61011f7f000000000000000000000000000000000000000000000000000000000000000081565b6040516001600160a01b039091168152602001610098565b7f0000000000000000000000000000000000000000000000000000000000000000610160610452565b610169816104d2565b600060405160200161017b9190610763565b60405160208183030381529060405280519060200120846040516020016101a291906107d9565b60405160208183030381529060405280519060200120146101c5576101c56107f5565b60006101d1848261085a565b506001805483919060ff1916818360038111156101f0576101f06106eb565b02179055507f9a5329d1afc984b4987592b22a021e2385e3dcd38e74fb9f27285948442181f8848460405161022692919061091a565b60405180910390a1600060015460ff166003811115610247576102476106eb565b1461028c576001546040517fe30a7197f4bcf77a0500f4d49e711083bfc4107c06942bf9ca7dd2d678fefab7916102839160ff90911690610701565b60405180910390a15b50505050565b600060015460ff1660038111156102ab576102ab6106eb565b146102ec5760405162461bcd60e51b815260206004820152600c60248201526b33b0b6b29034b99037bb32b960a11b60448201526064015b60405180910390fd5b7f00000000000000000000000000000000000000000000000000000000000000006001600160a01b031663e80802a27f0000000000000000000000000000000000000000000000000000000000000000600084604051602001610350929190610948565b60408051601f19818403018152908290526001600160e01b031960e085901b16825261038f92913090632e993c8360e01b90620186a0906004016109de565b600060405180830381600087803b1580156103a957600080fd5b505af11580156103bd573d6000803e3d6000fd5b5050505050565b600080546103d190610729565b80601f01602080910402602001604051908101604052809291908181526020018280546103fd90610729565b801561044a5780601f1061041f5761010080835404028352916020019161044a565b820191906000526020600020905b81548152906001019060200180831161042d57829003601f168201915b505050505081565b336001600160a01b037f00000000000000000000000000000000000000000000000000000000000000001681146104cf5760405163432e033760e11b81526001600160a01b037f000000000000000000000000000000000000000000000000000000000000000081166004830152821660248201526044016102e3565b50565b600080366104e1602082610a31565b6104ec928290610a58565b6104f591610a82565b905080821461052157604051630be5472b60e41b815260048101839052602481018290526044016102e3565b5050565b634e487b7160e01b600052604160045260246000fd5b600082601f83011261054c57600080fd5b813567ffffffffffffffff8082111561056757610567610525565b604051601f8301601f19908116603f0116810190828211818310171561058f5761058f610525565b816040528381528660208588010111156105a857600080fd5b836020870160208301376000602085830101528094505050505092915050565b6000806000606084860312156105dd57600080fd5b833567ffffffffffffffff808211156105f557600080fd5b6106018783880161053b565b9450602086013591508082111561061757600080fd5b506106248682870161053b565b92505060408401356004811061063957600080fd5b809150509250925092565b60006020828403121561065657600080fd5b813567ffffffffffffffff81111561066d57600080fd5b6106798482850161053b565b949350505050565b60005b8381101561069c578181015183820152602001610684565b50506000910152565b600081518084526106bd816020860160208601610681565b601f01601f19169290920160200192915050565b6020815260006106e460208301846106a5565b9392505050565b634e487b7160e01b600052602160045260246000fd5b602081016004831061072357634e487b7160e01b600052602160045260246000fd5b91905290565b600181811c9082168061073d57607f821691505b60208210810361075d57634e487b7160e01b600052602260045260246000fd5b50919050565b600080835461077181610729565b60018281168015610789576001811461079e576107cd565b60ff19841687528215158302870194506107cd565b8760005260208060002060005b858110156107c45781548a8201529084019082016107ab565b50505082870194505b50929695505050505050565b600082516107eb818460208701610681565b9190910192915050565b634e487b7160e01b600052600160045260246000fd5b601f82111561085557600081815260208120601f850160051c810160208610156108325750805b601f850160051c820191505b818110156108515782815560010161083e565b5050505b505050565b815167ffffffffffffffff81111561087457610874610525565b610888816108828454610729565b8461080b565b602080601f8311600181146108bd57600084156108a55750858301515b600019600386901b1c1916600185901b178555610851565b600085815260208120601f198616915b828110156108ec578886015182559484019460019091019084016108cd565b508582101561090a5787850151600019600388901b60f8161c191681555b5050505050600190811b01905550565b60408152600061092d60408301856106a5565b828103602084015261093f81856106a5565b95945050505050565b60408152600080845461095a81610729565b806040860152606060018084166000811461097c5760018114610996576109c7565b60ff1985168884015283151560051b8801830195506109c7565b8960005260208060002060005b868110156109be5781548b82018701529084019082016109a3565b8a018501975050505b5050505050828103602084015261093f81856106a5565b85815260a0602082015260006109f760a08301876106a5565b6001600160a01b03959095166040830152506001600160e01b031992909216606083015267ffffffffffffffff1660809091015292915050565b81810381811115610a5257634e487b7160e01b600052601160045260246000fd5b92915050565b60008085851115610a6857600080fd5b83861115610a7557600080fd5b5050820193919092039150565b80356020831015610a5257600019602084900360031b1b169291505056fea26469706673582212206825a01fd16d34b2e5a60b9ea3edc0676e44782f9ff3f95b10df9db3c80a6e4f64736f6c63430008140033726e62716b626e722f70707070707070702f382f382f382f382f50505050505050502f524e42514b424e522077204b516b71202d20302031",
    "linkReferences": {}
  },
  "methodIdentifiers": {
    "bonsaiRelay()": "e70ffd4b",
    "fen()": "945c3ce1",
    "fibImageId()": "13234edc",
    "gameState()": "d1f9c24d",
    "makeMove(string)": "9198eb7e",
    "updateBoard(string,string,uint8)": "2e993c83"
  },
  "id": 0
}