{
  "abi": [
    {
      "inputs": [
        {
          "internalType": "contract IBonsaiRelay",
          "name": "bonsaiRelay",
          "type": "address"
        },
        {
          "internalType": "bytes32",
          "name": "_fibImageId",
          "type": "bytes32"
        }
      ],
      "stateMutability": "nonpayable",
      "type": "constructor"
    },
    {
      "inputs": [
        {
          "internalType": "contract IBonsaiRelay",
          "name": "expected",
          "type": "address"
        },
        {
          "internalType": "contract IBonsaiRelay",
          "name": "found",
          "type": "address"
        }
      ],
      "name": "UnauthorizedCallbackSource",
      "type": "error"
    },
    {
      "inputs": [
        {
          "internalType": "bytes32",
          "name": "expected",
          "type": "bytes32"
        },
        {
          "internalType": "bytes32",
          "name": "found",
          "type": "bytes32"
        }
      ],
      "name": "UnexpectedImageId",
      "type": "error"
    },
    {
      "anonymous": false,
      "inputs": [
        {
          "indexed": false,
          "internalType": "string",
          "name": "prevBoard",
          "type": "string"
        },
        {
          "indexed": false,
          "internalType": "string",
          "name": "nextBoard",
          "type": "string"
        },
        {
          "indexed": false,
          "internalType": "string",
          "name": "move",
          "type": "string"
        }
      ],
      "name": "BoardUpdated",
      "type": "event"
    },
    {
      "anonymous": false,
      "inputs": [
        {
          "indexed": false,
          "internalType": "enum BonsaiChess.GameState",
          "name": "gameState",
          "type": "uint8"
        }
      ],
      "name": "GameOver",
      "type": "event"
    },
    {
      "inputs": [],
      "name": "bonsaiRelay",
      "outputs": [
        {
          "internalType": "contract IBonsaiRelay",
          "name": "",
          "type": "address"
        }
      ],
      "stateMutability": "view",
      "type": "function"
    },
    {
      "inputs": [],
      "name": "fen",
      "outputs": [
        {
          "internalType": "string",
          "name": "",
          "type": "string"
        }
      ],
      "stateMutability": "view",
      "type": "function"
    },
    {
      "inputs": [],
      "name": "fibImageId",
      "outputs": [
        {
          "internalType": "bytes32",
          "name": "",
          "type": "bytes32"
        }
      ],
      "stateMutability": "view",
      "type": "function"
    },
    {
      "inputs": [],
      "name": "gameState",
      "outputs": [
        {
          "internalType": "enum BonsaiChess.GameState",
          "name": "",
          "type": "uint8"
        }
      ],
      "stateMutability": "view",
      "type": "function"
    },
    {
      "inputs": [
        {
          "internalType": "string",
          "name": "move",
          "type": "string"
        }
      ],
      "name": "makeMove",
      "outputs": [],
      "stateMutability": "nonpayable",
      "type": "function"
    },
    {
      "inputs": [
        {
          "internalType": "string",
          "name": "prevBoard",
          "type": "string"
        },
        {
          "internalType": "string",
          "name": "nextBoard",
          "type": "string"
        },
        {
          "internalType": "string",
          "name": "move",
          "type": "string"
        },
        {
          "internalType": "enum BonsaiChess.GameState",
          "name": "state",
          "type": "uint8"
        }
      ],
      "name": "updateBoard",
      "outputs": [],
      "stateMutability": "nonpayable",
      "type": "function"
    }
  ],
  "bytecode": {
    "object": "0x60c06040523480156200001157600080fd5b5060405162000dc038038062000dc0833981016040819052620000349162000081565b6001600160a01b03821660805260a08190526040805160608101909152603880825262000d8860208301396000906200006e908262000162565b50506001805460ff19169055506200022e565b600080604083850312156200009557600080fd5b82516001600160a01b0381168114620000ad57600080fd5b6020939093015192949293505050565b634e487b7160e01b600052604160045260246000fd5b600181811c90821680620000e857607f821691505b6020821081036200010957634e487b7160e01b600052602260045260246000fd5b50919050565b601f8211156200015d57600081815260208120601f850160051c81016020861015620001385750805b601f850160051c820191505b81811015620001595782815560010162000144565b5050505b505050565b81516001600160401b038111156200017e576200017e620000bd565b62000196816200018f8454620000d3565b846200010f565b602080601f831160018114620001ce5760008415620001b55750858301515b600019600386901b1c1916600185901b17855562000159565b600085815260208120601f198616915b82811015620001ff57888601518255948401946001909101908401620001de565b50858210156200021e5787850151600019600388901b60f8161c191681555b5050505050600190811b01905550565b60805160a051610b136200027560003960008181606c01528181610139015261032001526000818160fd015281816102f10152818161045901526104960152610b136000f3fe608060405234801561001057600080fd5b50600436106100625760003560e01c806313234edc146100675780632b8f5f95146100a15780639198eb7e146100b6578063945c3ce1146100c9578063d1f9c24d146100de578063e70ffd4b146100f8575b600080fd5b61008e7f000000000000000000000000000000000000000000000000000000000000000081565b6040519081526020015b60405180910390f35b6100b46100af3660046105c4565b610137565b005b6100b46100c4366004610663565b610295565b6100d16103c0565b60405161009891906106f0565b6001546100eb9060ff1681565b6040516100989190610720565b61011f7f000000000000000000000000000000000000000000000000000000000000000081565b6040516001600160a01b039091168152602001610098565b7f000000000000000000000000000000000000000000000000000000000000000061016061044e565b610169816104ce565b600060405160200161017b9190610782565b60405160208183030381529060405280519060200120856040516020016101a291906107f8565b60405160208183030381529060405280519060200120146101c5576101c5610814565b60006101d18582610879565b506001805483919060ff1916818360038111156101f0576101f061070a565b02179055507ff3388fec30791fd60e9353738d12531fdb858b30b76af35336bebd79bcb7b4c385858560405161022893929190610939565b60405180910390a1600060015460ff1660038111156102495761024961070a565b1461028e576001546040517fe30a7197f4bcf77a0500f4d49e711083bfc4107c06942bf9ca7dd2d678fefab7916102859160ff90911690610720565b60405180910390a15b5050505050565b600060015460ff1660038111156102ae576102ae61070a565b146102ef5760405162461bcd60e51b815260206004820152600c60248201526b33b0b6b29034b99037bb32b960a11b60448201526064015b60405180910390fd5b7f00000000000000000000000000000000000000000000000000000000000000006001600160a01b031663e80802a27f000000000000000000000000000000000000000000000000000000000000000060008460405160200161035392919061097c565b60408051601f19818403018152908290526001600160e01b031960e085901b16825261039292913090632b8f5f9560e01b90620186a090600401610a1b565b600060405180830381600087803b1580156103ac57600080fd5b505af115801561028e573d6000803e3d6000fd5b600080546103cd90610748565b80601f01602080910402602001604051908101604052809291908181526020018280546103f990610748565b80156104465780601f1061041b57610100808354040283529160200191610446565b820191906000526020600020905b81548152906001019060200180831161042957829003601f168201915b505050505081565b336001600160a01b037f00000000000000000000000000000000000000000000000000000000000000001681146104cb5760405163432e033760e11b81526001600160a01b037f000000000000000000000000000000000000000000000000000000000000000081166004830152821660248201526044016102e6565b50565b600080366104dd602082610a6e565b6104e8928290610a95565b6104f191610abf565b905080821461051d57604051630be5472b60e41b815260048101839052602481018290526044016102e6565b5050565b634e487b7160e01b600052604160045260246000fd5b600082601f83011261054857600080fd5b813567ffffffffffffffff8082111561056357610563610521565b604051601f8301601f19908116603f0116810190828211818310171561058b5761058b610521565b816040528381528660208588010111156105a457600080fd5b836020870160208301376000602085830101528094505050505092915050565b600080600080608085870312156105da57600080fd5b843567ffffffffffffffff808211156105f257600080fd5b6105fe88838901610537565b9550602087013591508082111561061457600080fd5b61062088838901610537565b9450604087013591508082111561063657600080fd5b5061064387828801610537565b92505060608501356004811061065857600080fd5b939692955090935050565b60006020828403121561067557600080fd5b813567ffffffffffffffff81111561068c57600080fd5b61069884828501610537565b949350505050565b60005b838110156106bb5781810151838201526020016106a3565b50506000910152565b600081518084526106dc8160208601602086016106a0565b601f01601f19169290920160200192915050565b60208152600061070360208301846106c4565b9392505050565b634e487b7160e01b600052602160045260246000fd5b602081016004831061074257634e487b7160e01b600052602160045260246000fd5b91905290565b600181811c9082168061075c57607f821691505b60208210810361077c57634e487b7160e01b600052602260045260246000fd5b50919050565b600080835461079081610748565b600182811680156107a857600181146107bd576107ec565b60ff19841687528215158302870194506107ec565b8760005260208060002060005b858110156107e35781548a8201529084019082016107ca565b50505082870194505b50929695505050505050565b6000825161080a8184602087016106a0565b9190910192915050565b634e487b7160e01b600052600160045260246000fd5b601f82111561087457600081815260208120601f850160051c810160208610156108515750805b601f850160051c820191505b818110156108705782815560010161085d565b5050505b505050565b815167ffffffffffffffff81111561089357610893610521565b6108a7816108a18454610748565b8461082a565b602080601f8311600181146108dc57600084156108c45750858301515b600019600386901b1c1916600185901b178555610870565b600085815260208120601f198616915b8281101561090b578886015182559484019460019091019084016108ec565b50858210156109295787850151600019600388901b60f8161c191681555b5050505050600190811b01905550565b60608152600061094c60608301866106c4565b828103602084015261095e81866106c4565b9050828103604084015261097281856106c4565b9695505050505050565b60408152600080845461098e81610748565b80604086015260606001808416600081146109b057600181146109ca576109fb565b60ff1985168884015283151560051b8801830195506109fb565b8960005260208060002060005b868110156109f25781548b82018701529084019082016109d7565b8a018501975050505b50505050508281036020840152610a1281856106c4565b95945050505050565b85815260a060208201526000610a3460a08301876106c4565b6001600160a01b03959095166040830152506001600160e01b031992909216606083015267ffffffffffffffff1660809091015292915050565b81810381811115610a8f57634e487b7160e01b600052601160045260246000fd5b92915050565b60008085851115610aa557600080fd5b83861115610ab257600080fd5b5050820193919092039150565b80356020831015610a8f57600019602084900360031b1b169291505056fea26469706673582212206016565e82e7823dd48578e415b8554a57048be1f06c738c8bd4b9c36e2be75864736f6c63430008140033726e62716b626e722f70707070707070702f382f382f382f382f50505050505050502f524e42514b424e522077204b516b71202d20302031",
    "linkReferences": {}
  },
  "methodIdentifiers": {
    "bonsaiRelay()": "e70ffd4b",
    "fen()": "945c3ce1",
    "fibImageId()": "13234edc",
    "gameState()": "d1f9c24d",
    "makeMove(string)": "9198eb7e",
    "updateBoard(string,string,string,uint8)": "2b8f5f95"
  },
  "id": 0
}